:1070000055C000006EC000006CC000006AC00000E7
:1070100068C0000066C0000064C0000062C00000DC
:1070200060C000005EC00000ECC400005AC0000058
:1070300058C0000056C0000054C0000052C00000FC
:1070400050C0000095C000004CC000004AC00000C5
:1070500048C0000046C0000044C0000042C000001C
:1070600040C000003EC000003CC000003AC000002C
:1070700038C0000036C0000034C0000032C000003C
:1070800030C000002EC000002CC000002AC000004C
:1070900028C0000026C0000024C0000022C000005C
:1070A00020C000001EC000001CC0000011241FBE34
:1070B000CFEFDAE0DEBFCDBF11E0A0E0B1E0E8E164
:1070C000FFE702C005900D92A83BB107D9F711E088
:1070D000A8EBB1E001C01D92A13DB107E1F73DD39E
:1070E00019C78ECF84E08093E9000DC08091E8003D
:1070F0008B778093E80003C08EB3882359F080918A
:10710000E80082FFF9CF8091E80085FFEFCF809102
:10711000F100089580E0089593E09093E900909144
:10712000E80095FD0DC09091E8009E779093E800EF
:1071300003C09EB3992369F09091E80090FFF9CFC6
:107140008093F1005D9884E690E09093B90180937C
:10715000B8010895F89410926F001092810081E0B8
:1071600085BF15BE47985D9A289A0C940000089533
:107170001F920F920FB60F9211242F938F939F930C
:10718000EF93FF9310928500109284008091B801D4
:107190009091B901009741F001979093B9018093C4
:1071A000B801009709F45D9A8091BA019091BB01F2
:1071B000009741F001979093BB018093BA0100972B
:1071C00009F4289A8091BE019091BF010196909395
:1071D000BF018093BE01E0E0F0E0859194912FEF34
:1071E0008F3F920749F08091BC019091BD010196BB
:1071F0009093BD018093BC01FF91EF919F918F917E
:107200002F910F900FBE0F901F90189582E061ECA8
:1072100042E072D383E061E842E16ED384E060E84B
:1072200042E16AC38091C901982F9F77913249F555
:107230009091CA019032A1F0913219F5813A09F585
:107240008091E800877F8093E8008CE091E067E020
:1072500070E086D48091E8008B778093E8000895F1
:10726000813279F48091E800877F8093E8008CE098
:1072700091E067E070E0D5D48091E8008E7780934C
:10728000E80008954F925F926F927F928F929F9243
:10729000AF92BF92CF92DF92EF92FF920F931F9324
:1072A000CF93DF9384E08093E9008091E80082FF30
:1072B00043C2289884E690E09093BB018093BA0182
:1072C00011DF182F853481F48CEA9DE09093BD0185
:1072D0008093BC0107B600FCFDCFF999FECF81E198
:1072E00080935700E89503C0843519F4FBDE8DE0E8
:1072F000F9C18C34E1F38035D1F3843721F484E48F
:107300000BDF80E0EFC1813611F489E5EBC18134F8
:1073100001F5E8DE182FE6DE282F30E0220F331FBC
:10732000442737FD4095542F712F770F60E0CB0134
:10733000AA2797FDA095BA2F282B392B4A2B5B2B18
:107340002093C0013093C1014093C2015093C30107
:10735000CECF803711F483E5C5C1833549F4C0E051
:10736000D1E08991D9DE21E0C730D207D1F7BBC186
:10737000863521F481E3D0DE80E3B4C1833731F474
:1073800087E8CADE85E9C8DE8EE1ACC18536F9F44E
:1073900080E090E0DC0133E025E0FC013093570011
:1073A000E89507B600FCFDCF20935700E89507B697
:1073B00000FCFDCF80589F4FAF4FBF4F803040E75C
:1073C000940740E0A40740E0B40739F790CF823734
:1073D00019F4E1E0F0E00EC0863419F4E0E0F0E0EA
:1073E00009C08E3419F4E3E0F0E004C0813539F4CB
:1073F000E2E0F0E089E080935700849173C1823627
:1074000031F489E589DE80E087DE80E86BC1823473
:1074100019F0873609F0DBC01092BD011092BC0153
:1074200061DEC82E5FDEE82E5DDED82E8554823008
:1074300008F057C13C2D20E0CE2DD0E0C22BD32B3D
:1074400010926F00173609F044C081E18093570015
:10745000E895CC24BB24B39438C0E090C001F090F0
:10746000C1010091C2011091C3018D2D8634B9F480
:10747000EC2DF0E0EE29FF2984914EDECC2069F05E
:10748000D801C7010296A11DB11D8093C001909340
:10749000C101A093C201B093C301CB2415C0D80190
:1074A000C701B695A795979587951ED535DED80166
:1074B000C7010296A11DB11D8093C0019093C10127
:1074C000A093C201B093C3012197209709F0C5CFC3
:1074D0007AC04090C0015090C1016090C20170908C
:1074E000C301ED2DE63409F05AC083E0F201809328
:1074F0005700E89507B600FCFDCF51C0FD2DF634CE
:1075000049F5CC2019F1E090C001F090C101009143
:10751000C2011091C301E6DD982E88248B2D90E0E6
:1075200088299929F7010C01A0925700E8951124A8
:10753000D801C7010296A11DB11D8093C00190938F
:10754000C101A093C201B093C30102C0CBDDB82E2C
:10755000CA2423C0E090C001F090C1010091C20193
:107560001091C30116950795F794E794BBDD682F3A
:10757000C701C2D48091C0019091C101A091C20104
:10758000B091C3010296A11DB11D8093C0019093DB
:10759000C101A093C201B093C301219704C0BB24D1
:1075A000CC24AA24A394209709F0A8CFFD2DF6346B
:1075B00041F485E0F20180935700E89507B600FC9E
:1075C000FDCF8DE0A9DD82E080936F008CC0833415
:1075D00071F4C091C001D091C10184DD90E021E03F
:1075E000FE010C0120935700E895112480CE8336CC
:1075F000A9F4E090C001F090C1010091C201109186
:10760000C30170DDF701E16090E021E00C012093FF
:107610005700E8951124D801C70135C08D3661F4B3
:10762000E091C001F091C10185E080935700E89599
:1076300007B600FCFDCF5BCE823559F4E091C00166
:10764000F091C101C591D4917E018F2D65DD8C2F04
:1076500049C0843421F5E090C001F090C10100914F
:10766000C2011091C30116950795F794E7943ADD8E
:10767000682FC70141D48091C0019091C101A091B0
:10768000C201B091C3010296A11DB11D8093C0013A
:107690009093C101A093C201B093C30128CE843658
:1076A000F1F4E090C001F090C1010091C20110918D
:1076B000C301D801C701B695A7959795879514D4AE
:1076C0002BDDD801C7010296A11DB11D8093C00119
:1076D0009093C101A093C201B093C30104C08B3148
:1076E00011F08FE319DD83E08093E9009091E800C9
:1076F0008091E8008E778093E80095FF04C010C069
:107700008EB38823C9F08091E80080FFF9CF809183
:10771000E8008E778093E80003C08EB3882361F081
:107720008091E80080FFF9CF84E08093E9008091A8
:10773000E8008B778093E800DF91CF911F910F9144
:10774000FF90EF90DF90CF90BF90AF909F908F9081
:107750007F906F905F904F9008951F932091000845
:107760001092000844B714BE88E10FB6F8948093D5
:107770006000109260000FBE90E880E00FB6F894B1
:1077800090936100809361000FBE31E035BF82E0CD
:1077900085BF3F9A209A559A90936100109261009C
:1077A00047985D9A289A109289009AEF90938800E2
:1077B00080936F0083E080938100E0E0F0E08591AA
:1077C00094915FEF8F3F950711F03093C40141FF13
:1077D0001CC0809109012817C1F08093000878949B
:1077E00080911301882341F08091BE019091BF01E7
:1077F00021E088379207C0F310921301109200081D
:10780000F89481E0809313010CC040FF04C0809184
:10781000C401882351F443FF09C08091090128174E
:1078200029F08091C401882309F094DCD2D07894A7
:107830001092BD011092BC011EEF21C023DD42D386
:107840008091BC019091BD013FE0813A930710F017
:10785000109213018091C5019091C60101969093F9
:10786000C6018093C501292F97FF03C0512F591BD3
:10787000252F220F281710F4479801C0479A8091AE
:1078800013018823D9F68091E00081608093E000A5
:1078900061DC80E090E01F910895923029F09330F0
:1078A00041F0913061F410C02EE330E086E291E0C7
:1078B0001EC0882371F0813089F08230A1F020E071
:1078C00030E080E090E013C022E130E084E191E01C
:1078D0000EC024E030E084E691E009C022E230E00E
:1078E00088E691E004C02AE230E08CE891E0FA01F9
:1078F00091838083C90108958093E900EBEEF0E065
:10790000808181608083EDEEF0E010826093EC0076
:1079100040838091EE00881F8827881F08958091FA
:10792000C90187FF11C003C08EB38823B1F08091D5
:10793000E80082FFF9CF8091E8008B778093E80020
:1079400008958EB3882349F08091E80080FFF9CF35
:107950008091E8008E778093E80008950F931F933D
:10796000CF93DF9341D048D0C8EDD0E088818F77A6
:10797000888388818068888388818F7D888319BC0B
:107980001EBA1092C70100EE10E0F80180818B7FD3
:10799000808388818160888380E060E042E0ACDFA2
:1079A000E1EEF0E080818E7F8083E2EEF0E0808186
:1079B00081608083808188608083F80180818E7FF0
:1079C0008083888180618883DF91CF911F910F919F
:1079D0000895E7EDF0E08081816080838AE482BFD2
:1079E00081E08093C801BACFE8EDF0E080818E7F1E
:1079F00080831092E20008951092DA001092E10064
:107A000008951F920F920FB60F9211242F933F9358
:107A10004F935F936F937F938F939F93AF93BF9396
:107A2000EF93FF938091DA0080FF1AC08091D80015
:107A300080FF16C08091DA008E7F8093DA008091FB
:107A4000D90080FF0AC019BC82E089BD09B400FEDC
:107A5000FDCF81E08EBB35D203C019BC1EBA31D236
:107A60008091E10080FF17C08091E20080FF13C089
:107A70008091E2008E7F8093E2008091E20080613D
:107A80008093E2008091D80080628093D80019BC76
:107A900085E08EBB16D28091E10084FF2BC08091DF
:107AA000E20084FF27C019BC82E089BD09B400FE52
:107AB000FDCF8091D8008F7D8093D8008091E10028
:107AC0008F7E8093E1008091E2008F7E8093E200C0
:107AD0008091E20081608093E2008091C701882359
:107AE00021F48091E30087FF02C084E001C081E0BF
:107AF0008EBBE7D18091E10083FF21C08091E2003D
:107B000083FF1DC08091E100877F8093E10082E0C8
:107B10008EBB1092C7018091E1008E7F8093E100BF
:107B20008091E2008E7F8093E2008091E20080618C
:107B30008093E20080E060E042E0DEDEC2D1FF91AF
:107B4000EF91BF91AF919F918F917F916F915F91D5
:107B50004F913F912F910F900FBE0F901F9018954E
:107B6000482F592FFA018091CF019091D0018617AB
:107B7000970718F4BC0140E03BC061157105D9F7C7
:107B80008091E8008E778093E800F5CF8EB388234C
:107B900009F443C08530E9F18091E80083FD3BC0E2
:107BA0008091E80082FD2FC08091E80080FF20C016
:107BB0009091F3008091F200392F20E090E0822B29
:107BC000932B06C041914093F100615070400196A3
:107BD0006115710519F088309105A0F341E08830F6
:107BE000910509F040E08091E8008E778093E800ED
:107BF0006115710559F6442349F605C08EB38823F3
:107C000061F0853061F08091E80082FFF7CF80E07D
:107C1000089583E0089581E0089582E0089583E067
:107C200008956115710551F524C04EB34423C9F17F
:107C3000453099F14091E80043FD31C04091E800A2
:107C400042FFF3CFE82FF92F07C08091F100819315
:107C5000CF016150704069F0CF015091F300409125
:107C6000F200352F20E050E0422B532B41155105F7
:107C700061F74091E8004B774093E800611571058A
:107C8000A1F605C08EB3882361F0853061F0809144
:107C9000E80080FFF7CF80E0089583E0089581E059
:107CA000089582E0089583E008950F931F93DF9372
:107CB000CF9300D0CDB7DEB7E9ECF1E08091F100D1
:107CC000819381E0E13DF807C9F7ACDA8091E800E3
:107CD00083FFE2C08091C9019091CA01953009F4F7
:107CE0006BC0963040F4913061F1913070F0933078
:107CF00009F0D2C026C0983009F4A1C0993009F427
:107D0000B0C0963009F0C8C07AC0803809F4C4C049
:107D1000823809F0C1C08091CD0187708093E9005D
:107D20009091EB001092E9008091E800877F8093AA
:107D3000E80081E095FF80E08093F1001092F1006F
:107D400089C0882319F0823009F0A6C08F71823073
:107D500009F0A2C08091CB01882341F52091CD018B
:107D6000277009F499C02093E9008091EB0080FF0F
:107D70001DC08091CA01833021F48091EB008062A4
:107D800013C08091EB0080618093EB0081E090E074
:107D900002C0880F991F2A95E2F78093EA0010929B
:107DA000EA008091EB0088608093EB001092E9007C
:107DB0008091E800877F51C0882309F06DC0109141
:107DC000CB011F770FB7F8948091E800877F8093ED
:107DD000E800A5DD8091E80080FFFCCF8091E30002
:107DE0008078812B8093E30080688093E3001123E7
:107DF00011F083E001C082E08EBB0FBF4DC0805800
:107E0000823008F049C08091CB019091CC01609103
:107E1000CD01AE014F5F5F4F40DDBC01009709F41B
:107E20003BC08091E800877F8093E80089819A8138
:107E300097DE8091E8008B778093E8002DC0803832
:107E400059F58091E800877F8093E8008091C70111
:107E50008093F1008091E8008E778093E8005FDDE9
:107E60001BC08823C9F49091CB019230A8F4809173
:107E7000E800877F8093E8009093C70150DD8091F0
:107E8000C701882321F48091E30087FF02C084E0CA
:107E900001C081E08EBBBAD98091E80083FF0AC09F
:107EA0008091EB0080628093EB008091E800877FF7
:107EB0008093E8000F900F90CF91DF911F910F9169
:107EC000089508951F938EB3882361F01091E900FF
:107ED00017701092E9008091E80083FF01C0E5DE91
:107EE0001093E9001F910895F999FECF92BD81BDCD
:107EF000F89A992780B50895262FF999FECF1FBAD1
:107F000092BD81BD20BD0FB6F894FA9AF99A0FBEC2
:087F100001960895F894FFCFDB
:107F18004341544552494E41007700080000000093
:107F28000000080112011001020000084F1B07920F
:107F380001000201000109023E000201008032092D
:107F480004000001020201000524001001042402BB
:107F5800040524060001070582030800FF0904013F
:107F680000020A000000070504021000010705834B
:107F78000210000104030904220345006E00670093
:107F88006400750069006E006F002000200020006A
:107F98002000200020002000200000002A035500B7
:107FA80043004C0020002D00200043005300200017
:107FB8004400650070006100720074006D00650087
:087FC8006E00740020000000AF
:040000030000700089
:00000001FF
